{
  "contractName": "Lands",
  "abi": [
    {
      "inputs": [],
      "payable": false,
      "stateMutability": "nonpayable",
      "type": "constructor"
    },
    {
      "anonymous": false,
      "inputs": [
        {
          "indexed": true,
          "internalType": "uint256",
          "name": "_landId",
          "type": "uint256"
        }
      ],
      "name": "AddingLand",
      "type": "event"
    },
    {
      "anonymous": false,
      "inputs": [
        {
          "indexed": false,
          "internalType": "address",
          "name": "_sellerId",
          "type": "address"
        }
      ],
      "name": "Landrequested",
      "type": "event"
    },
    {
      "anonymous": false,
      "inputs": [
        {
          "indexed": false,
          "internalType": "address",
          "name": "_registrationId",
          "type": "address"
        }
      ],
      "name": "Registration",
      "type": "event"
    },
    {
      "anonymous": false,
      "inputs": [
        {
          "indexed": false,
          "internalType": "address",
          "name": "_id",
          "type": "address"
        }
      ],
      "name": "Rejected",
      "type": "event"
    },
    {
      "anonymous": false,
      "inputs": [
        {
          "indexed": false,
          "internalType": "address",
          "name": "_id",
          "type": "address"
        }
      ],
      "name": "Verified",
      "type": "event"
    },
    {
      "anonymous": false,
      "inputs": [
        {
          "indexed": false,
          "internalType": "address",
          "name": "_buyerId",
          "type": "address"
        }
      ],
      "name": "requestApproved",
      "type": "event"
    },
    {
      "constant": true,
      "inputs": [
        {
          "internalType": "address",
          "name": "",
          "type": "address"
        }
      ],
      "name": "BuyerMapping",
      "outputs": [
        {
          "internalType": "address",
          "name": "id",
          "type": "address"
        },
        {
          "internalType": "string",
          "name": "name",
          "type": "string"
        },
        {
          "internalType": "uint256",
          "name": "age",
          "type": "uint256"
        },
        {
          "internalType": "string",
          "name": "city",
          "type": "string"
        },
        {
          "internalType": "string",
          "name": "ntnNumber",
          "type": "string"
        },
        {
          "internalType": "string",
          "name": "cnicNumber",
          "type": "string"
        },
        {
          "internalType": "string",
          "name": "document",
          "type": "string"
        },
        {
          "internalType": "string",
          "name": "email",
          "type": "string"
        }
      ],
      "payable": false,
      "stateMutability": "view",
      "type": "function"
    },
    {
      "constant": true,
      "inputs": [
        {
          "internalType": "address",
          "name": "",
          "type": "address"
        }
      ],
      "name": "BuyerRejection",
      "outputs": [
        {
          "internalType": "bool",
          "name": "",
          "type": "bool"
        }
      ],
      "payable": false,
      "stateMutability": "view",
      "type": "function"
    },
    {
      "constant": true,
      "inputs": [
        {
          "internalType": "address",
          "name": "",
          "type": "address"
        }
      ],
      "name": "BuyerVerification",
      "outputs": [
        {
          "internalType": "bool",
          "name": "",
          "type": "bool"
        }
      ],
      "payable": false,
      "stateMutability": "view",
      "type": "function"
    },
    {
      "constant": true,
      "inputs": [
        {
          "internalType": "uint256",
          "name": "",
          "type": "uint256"
        }
      ],
      "name": "InspectorMapping",
      "outputs": [
        {
          "internalType": "uint256",
          "name": "id",
          "type": "uint256"
        },
        {
          "internalType": "string",
          "name": "name",
          "type": "string"
        },
        {
          "internalType": "uint256",
          "name": "age",
          "type": "uint256"
        },
        {
          "internalType": "string",
          "name": "designation",
          "type": "string"
        }
      ],
      "payable": false,
      "stateMutability": "view",
      "type": "function"
    },
    {
      "constant": true,
      "inputs": [
        {
          "internalType": "uint256",
          "name": "",
          "type": "uint256"
        }
      ],
      "name": "LandOwner",
      "outputs": [
        {
          "internalType": "address",
          "name": "",
          "type": "address"
        }
      ],
      "payable": false,
      "stateMutability": "view",
      "type": "function"
    },
    {
      "constant": true,
      "inputs": [
        {
          "internalType": "uint256",
          "name": "",
          "type": "uint256"
        }
      ],
      "name": "LandVerification",
      "outputs": [
        {
          "internalType": "bool",
          "name": "",
          "type": "bool"
        }
      ],
      "payable": false,
      "stateMutability": "view",
      "type": "function"
    },
    {
      "constant": true,
      "inputs": [],
      "name": "Land_Inspector",
      "outputs": [
        {
          "internalType": "address",
          "name": "",
          "type": "address"
        }
      ],
      "payable": false,
      "stateMutability": "view",
      "type": "function"
    },
    {
      "constant": true,
      "inputs": [
        {
          "internalType": "uint256",
          "name": "",
          "type": "uint256"
        }
      ],
      "name": "PaymentReceived",
      "outputs": [
        {
          "internalType": "bool",
          "name": "",
          "type": "bool"
        }
      ],
      "payable": false,
      "stateMutability": "view",
      "type": "function"
    },
    {
      "constant": true,
      "inputs": [
        {
          "internalType": "address",
          "name": "",
          "type": "address"
        }
      ],
      "name": "RegisteredAddressMapping",
      "outputs": [
        {
          "internalType": "bool",
          "name": "",
          "type": "bool"
        }
      ],
      "payable": false,
      "stateMutability": "view",
      "type": "function"
    },
    {
      "constant": true,
      "inputs": [
        {
          "internalType": "address",
          "name": "",
          "type": "address"
        }
      ],
      "name": "RegisteredBuyerMapping",
      "outputs": [
        {
          "internalType": "bool",
          "name": "",
          "type": "bool"
        }
      ],
      "payable": false,
      "stateMutability": "view",
      "type": "function"
    },
    {
      "constant": true,
      "inputs": [
        {
          "internalType": "address",
          "name": "",
          "type": "address"
        }
      ],
      "name": "RegisteredSellerMapping",
      "outputs": [
        {
          "internalType": "bool",
          "name": "",
          "type": "bool"
        }
      ],
      "payable": false,
      "stateMutability": "view",
      "type": "function"
    },
    {
      "constant": true,
      "inputs": [
        {
          "internalType": "uint256",
          "name": "",
          "type": "uint256"
        }
      ],
      "name": "RequestStatus",
      "outputs": [
        {
          "internalType": "bool",
          "name": "",
          "type": "bool"
        }
      ],
      "payable": false,
      "stateMutability": "view",
      "type": "function"
    },
    {
      "constant": true,
      "inputs": [
        {
          "internalType": "uint256",
          "name": "",
          "type": "uint256"
        }
      ],
      "name": "RequestedLands",
      "outputs": [
        {
          "internalType": "bool",
          "name": "",
          "type": "bool"
        }
      ],
      "payable": false,
      "stateMutability": "view",
      "type": "function"
    },
    {
      "constant": true,
      "inputs": [
        {
          "internalType": "uint256",
          "name": "",
          "type": "uint256"
        }
      ],
      "name": "RequestsMapping",
      "outputs": [
        {
          "internalType": "uint256",
          "name": "reqId",
          "type": "uint256"
        },
        {
          "internalType": "address",
          "name": "sellerId",
          "type": "address"
        },
        {
          "internalType": "address",
          "name": "buyerId",
          "type": "address"
        },
        {
          "internalType": "uint256",
          "name": "landId",
          "type": "uint256"
        }
      ],
      "payable": false,
      "stateMutability": "view",
      "type": "function"
    },
    {
      "constant": true,
      "inputs": [
        {
          "internalType": "address",
          "name": "",
          "type": "address"
        }
      ],
      "name": "SellerMapping",
      "outputs": [
        {
          "internalType": "address",
          "name": "id",
          "type": "address"
        },
        {
          "internalType": "string",
          "name": "name",
          "type": "string"
        },
        {
          "internalType": "uint256",
          "name": "age",
          "type": "uint256"
        },
        {
          "internalType": "string",
          "name": "ntnNumber",
          "type": "string"
        },
        {
          "internalType": "string",
          "name": "cnicNumber",
          "type": "string"
        },
        {
          "internalType": "string",
          "name": "landsOwned",
          "type": "string"
        },
        {
          "internalType": "string",
          "name": "document",
          "type": "string"
        }
      ],
      "payable": false,
      "stateMutability": "view",
      "type": "function"
    },
    {
      "constant": true,
      "inputs": [
        {
          "internalType": "address",
          "name": "",
          "type": "address"
        }
      ],
      "name": "SellerRejection",
      "outputs": [
        {
          "internalType": "bool",
          "name": "",
          "type": "bool"
        }
      ],
      "payable": false,
      "stateMutability": "view",
      "type": "function"
    },
    {
      "constant": true,
      "inputs": [
        {
          "internalType": "address",
          "name": "",
          "type": "address"
        }
      ],
      "name": "SellerVerification",
      "outputs": [
        {
          "internalType": "bool",
          "name": "",
          "type": "bool"
        }
      ],
      "payable": false,
      "stateMutability": "view",
      "type": "function"
    },
    {
      "constant": true,
      "inputs": [
        {
          "internalType": "uint256",
          "name": "",
          "type": "uint256"
        }
      ],
      "name": "buyers",
      "outputs": [
        {
          "internalType": "address",
          "name": "",
          "type": "address"
        }
      ],
      "payable": false,
      "stateMutability": "view",
      "type": "function"
    },
    {
      "constant": true,
      "inputs": [],
      "name": "buyersCount",
      "outputs": [
        {
          "internalType": "uint256",
          "name": "",
          "type": "uint256"
        }
      ],
      "payable": false,
      "stateMutability": "view",
      "type": "function"
    },
    {
      "constant": true,
      "inputs": [],
      "name": "inspectorsCount",
      "outputs": [
        {
          "internalType": "uint256",
          "name": "",
          "type": "uint256"
        }
      ],
      "payable": false,
      "stateMutability": "view",
      "type": "function"
    },
    {
      "constant": true,
      "inputs": [
        {
          "internalType": "uint256",
          "name": "",
          "type": "uint256"
        }
      ],
      "name": "lands",
      "outputs": [
        {
          "internalType": "uint256",
          "name": "id",
          "type": "uint256"
        },
        {
          "internalType": "uint256",
          "name": "area",
          "type": "uint256"
        },
        {
          "internalType": "string",
          "name": "city",
          "type": "string"
        },
        {
          "internalType": "string",
          "name": "state",
          "type": "string"
        },
        {
          "internalType": "uint256",
          "name": "landPrice",
          "type": "uint256"
        },
        {
          "internalType": "uint256",
          "name": "propertyPID",
          "type": "uint256"
        },
        {
          "internalType": "uint256",
          "name": "physicalSurveyNumber",
          "type": "uint256"
        },
        {
          "internalType": "string",
          "name": "ipfsHash",
          "type": "string"
        },
        {
          "internalType": "string",
          "name": "document",
          "type": "string"
        }
      ],
      "payable": false,
      "stateMutability": "view",
      "type": "function"
    },
    {
      "constant": true,
      "inputs": [],
      "name": "landsCount",
      "outputs": [
        {
          "internalType": "uint256",
          "name": "",
          "type": "uint256"
        }
      ],
      "payable": false,
      "stateMutability": "view",
      "type": "function"
    },
    {
      "constant": true,
      "inputs": [],
      "name": "requestsCount",
      "outputs": [
        {
          "internalType": "uint256",
          "name": "",
          "type": "uint256"
        }
      ],
      "payable": false,
      "stateMutability": "view",
      "type": "function"
    },
    {
      "constant": true,
      "inputs": [
        {
          "internalType": "uint256",
          "name": "",
          "type": "uint256"
        }
      ],
      "name": "sellers",
      "outputs": [
        {
          "internalType": "address",
          "name": "",
          "type": "address"
        }
      ],
      "payable": false,
      "stateMutability": "view",
      "type": "function"
    },
    {
      "constant": true,
      "inputs": [],
      "name": "sellersCount",
      "outputs": [
        {
          "internalType": "uint256",
          "name": "",
          "type": "uint256"
        }
      ],
      "payable": false,
      "stateMutability": "view",
      "type": "function"
    },
    {
      "constant": true,
      "inputs": [],
      "name": "getLandsCount",
      "outputs": [
        {
          "internalType": "uint256",
          "name": "",
          "type": "uint256"
        }
      ],
      "payable": false,
      "stateMutability": "view",
      "type": "function"
    },
    {
      "constant": true,
      "inputs": [],
      "name": "getBuyersCount",
      "outputs": [
        {
          "internalType": "uint256",
          "name": "",
          "type": "uint256"
        }
      ],
      "payable": false,
      "stateMutability": "view",
      "type": "function"
    },
    {
      "constant": true,
      "inputs": [],
      "name": "getSellersCount",
      "outputs": [
        {
          "internalType": "uint256",
          "name": "",
          "type": "uint256"
        }
      ],
      "payable": false,
      "stateMutability": "view",
      "type": "function"
    },
    {
      "constant": true,
      "inputs": [],
      "name": "getRequestsCount",
      "outputs": [
        {
          "internalType": "uint256",
          "name": "",
          "type": "uint256"
        }
      ],
      "payable": false,
      "stateMutability": "view",
      "type": "function"
    },
    {
      "constant": true,
      "inputs": [
        {
          "internalType": "uint256",
          "name": "i",
          "type": "uint256"
        }
      ],
      "name": "getArea",
      "outputs": [
        {
          "internalType": "uint256",
          "name": "",
          "type": "uint256"
        }
      ],
      "payable": false,
      "stateMutability": "view",
      "type": "function"
    },
    {
      "constant": true,
      "inputs": [
        {
          "internalType": "uint256",
          "name": "i",
          "type": "uint256"
        }
      ],
      "name": "getCity",
      "outputs": [
        {
          "internalType": "string",
          "name": "",
          "type": "string"
        }
      ],
      "payable": false,
      "stateMutability": "view",
      "type": "function"
    },
    {
      "constant": true,
      "inputs": [
        {
          "internalType": "uint256",
          "name": "i",
          "type": "uint256"
        }
      ],
      "name": "getState",
      "outputs": [
        {
          "internalType": "string",
          "name": "",
          "type": "string"
        }
      ],
      "payable": false,
      "stateMutability": "view",
      "type": "function"
    },
    {
      "constant": true,
      "inputs": [
        {
          "internalType": "uint256",
          "name": "i",
          "type": "uint256"
        }
      ],
      "name": "getPrice",
      "outputs": [
        {
          "internalType": "uint256",
          "name": "",
          "type": "uint256"
        }
      ],
      "payable": false,
      "stateMutability": "view",
      "type": "function"
    },
    {
      "constant": true,
      "inputs": [
        {
          "internalType": "uint256",
          "name": "i",
          "type": "uint256"
        }
      ],
      "name": "getPID",
      "outputs": [
        {
          "internalType": "uint256",
          "name": "",
          "type": "uint256"
        }
      ],
      "payable": false,
      "stateMutability": "view",
      "type": "function"
    },
    {
      "constant": true,
      "inputs": [
        {
          "internalType": "uint256",
          "name": "i",
          "type": "uint256"
        }
      ],
      "name": "getSurveyNumber",
      "outputs": [
        {
          "internalType": "uint256",
          "name": "",
          "type": "uint256"
        }
      ],
      "payable": false,
      "stateMutability": "view",
      "type": "function"
    },
    {
      "constant": true,
      "inputs": [
        {
          "internalType": "uint256",
          "name": "i",
          "type": "uint256"
        }
      ],
      "name": "getImage",
      "outputs": [
        {
          "internalType": "string",
          "name": "",
          "type": "string"
        }
      ],
      "payable": false,
      "stateMutability": "view",
      "type": "function"
    },
    {
      "constant": true,
      "inputs": [
        {
          "internalType": "uint256",
          "name": "i",
          "type": "uint256"
        }
      ],
      "name": "getDocument",
      "outputs": [
        {
          "internalType": "string",
          "name": "",
          "type": "string"
        }
      ],
      "payable": false,
      "stateMutability": "view",
      "type": "function"
    },
    {
      "constant": true,
      "inputs": [
        {
          "internalType": "uint256",
          "name": "id",
          "type": "uint256"
        }
      ],
      "name": "getLandOwner",
      "outputs": [
        {
          "internalType": "address",
          "name": "",
          "type": "address"
        }
      ],
      "payable": false,
      "stateMutability": "view",
      "type": "function"
    },
    {
      "constant": false,
      "inputs": [
        {
          "internalType": "address",
          "name": "_sellerId",
          "type": "address"
        }
      ],
      "name": "verifySeller",
      "outputs": [],
      "payable": false,
      "stateMutability": "nonpayable",
      "type": "function"
    },
    {
      "constant": false,
      "inputs": [
        {
          "internalType": "address",
          "name": "_sellerId",
          "type": "address"
        }
      ],
      "name": "rejectSeller",
      "outputs": [],
      "payable": false,
      "stateMutability": "nonpayable",
      "type": "function"
    },
    {
      "constant": false,
      "inputs": [
        {
          "internalType": "address",
          "name": "_buyerId",
          "type": "address"
        }
      ],
      "name": "verifyBuyer",
      "outputs": [],
      "payable": false,
      "stateMutability": "nonpayable",
      "type": "function"
    },
    {
      "constant": false,
      "inputs": [
        {
          "internalType": "address",
          "name": "_buyerId",
          "type": "address"
        }
      ],
      "name": "rejectBuyer",
      "outputs": [],
      "payable": false,
      "stateMutability": "nonpayable",
      "type": "function"
    },
    {
      "constant": false,
      "inputs": [
        {
          "internalType": "uint256",
          "name": "_landId",
          "type": "uint256"
        }
      ],
      "name": "verifyLand",
      "outputs": [],
      "payable": false,
      "stateMutability": "nonpayable",
      "type": "function"
    },
    {
      "constant": true,
      "inputs": [
        {
          "internalType": "uint256",
          "name": "_id",
          "type": "uint256"
        }
      ],
      "name": "isLandVerified",
      "outputs": [
        {
          "internalType": "bool",
          "name": "",
          "type": "bool"
        }
      ],
      "payable": false,
      "stateMutability": "view",
      "type": "function"
    },
    {
      "constant": true,
      "inputs": [
        {
          "internalType": "address",
          "name": "_id",
          "type": "address"
        }
      ],
      "name": "isVerified",
      "outputs": [
        {
          "internalType": "bool",
          "name": "",
          "type": "bool"
        }
      ],
      "payable": false,
      "stateMutability": "view",
      "type": "function"
    },
    {
      "constant": true,
      "inputs": [
        {
          "internalType": "address",
          "name": "_id",
          "type": "address"
        }
      ],
      "name": "isRejected",
      "outputs": [
        {
          "internalType": "bool",
          "name": "",
          "type": "bool"
        }
      ],
      "payable": false,
      "stateMutability": "view",
      "type": "function"
    },
    {
      "constant": true,
      "inputs": [
        {
          "internalType": "address",
          "name": "_id",
          "type": "address"
        }
      ],
      "name": "isSeller",
      "outputs": [
        {
          "internalType": "bool",
          "name": "",
          "type": "bool"
        }
      ],
      "payable": false,
      "stateMutability": "view",
      "type": "function"
    },
    {
      "constant": true,
      "inputs": [
        {
          "internalType": "address",
          "name": "_id",
          "type": "address"
        }
      ],
      "name": "isLandInspector",
      "outputs": [
        {
          "internalType": "bool",
          "name": "",
          "type": "bool"
        }
      ],
      "payable": false,
      "stateMutability": "view",
      "type": "function"
    },
    {
      "constant": true,
      "inputs": [
        {
          "internalType": "address",
          "name": "_id",
          "type": "address"
        }
      ],
      "name": "isBuyer",
      "outputs": [
        {
          "internalType": "bool",
          "name": "",
          "type": "bool"
        }
      ],
      "payable": false,
      "stateMutability": "view",
      "type": "function"
    },
    {
      "constant": true,
      "inputs": [
        {
          "internalType": "address",
          "name": "_id",
          "type": "address"
        }
      ],
      "name": "isRegistered",
      "outputs": [
        {
          "internalType": "bool",
          "name": "",
          "type": "bool"
        }
      ],
      "payable": false,
      "stateMutability": "view",
      "type": "function"
    },
    {
      "constant": false,
      "inputs": [
        {
          "internalType": "uint256",
          "name": "_area",
          "type": "uint256"
        },
        {
          "internalType": "string",
          "name": "_city",
          "type": "string"
        },
        {
          "internalType": "string",
          "name": "_state",
          "type": "string"
        },
        {
          "internalType": "uint256",
          "name": "landPrice",
          "type": "uint256"
        },
        {
          "internalType": "uint256",
          "name": "_propertyPID",
          "type": "uint256"
        },
        {
          "internalType": "uint256",
          "name": "_surveyNum",
          "type": "uint256"
        },
        {
          "internalType": "string",
          "name": "_ipfsHash",
          "type": "string"
        },
        {
          "internalType": "string",
          "name": "_document",
          "type": "string"
        }
      ],
      "name": "addLand",
      "outputs": [],
      "payable": false,
      "stateMutability": "nonpayable",
      "type": "function"
    },
    {
      "constant": false,
      "inputs": [
        {
          "internalType": "string",
          "name": "_name",
          "type": "string"
        },
        {
          "internalType": "uint256",
          "name": "_age",
          "type": "uint256"
        },
        {
          "internalType": "string",
          "name": "_ntnNumber",
          "type": "string"
        },
        {
          "internalType": "string",
          "name": "_cnicNumber",
          "type": "string"
        },
        {
          "internalType": "string",
          "name": "_landsOwned",
          "type": "string"
        },
        {
          "internalType": "string",
          "name": "_document",
          "type": "string"
        }
      ],
      "name": "registerSeller",
      "outputs": [],
      "payable": false,
      "stateMutability": "nonpayable",
      "type": "function"
    },
    {
      "constant": false,
      "inputs": [
        {
          "internalType": "string",
          "name": "_name",
          "type": "string"
        },
        {
          "internalType": "uint256",
          "name": "_age",
          "type": "uint256"
        },
        {
          "internalType": "string",
          "name": "_ntnNumber",
          "type": "string"
        },
        {
          "internalType": "string",
          "name": "_cnicNumber",
          "type": "string"
        },
        {
          "internalType": "string",
          "name": "_landsOwned",
          "type": "string"
        }
      ],
      "name": "updateSeller",
      "outputs": [],
      "payable": false,
      "stateMutability": "nonpayable",
      "type": "function"
    },
    {
      "constant": true,
      "inputs": [],
      "name": "getSeller",
      "outputs": [
        {
          "internalType": "address[]",
          "name": "",
          "type": "address[]"
        }
      ],
      "payable": false,
      "stateMutability": "view",
      "type": "function"
    },
    {
      "constant": true,
      "inputs": [
        {
          "internalType": "address",
          "name": "i",
          "type": "address"
        }
      ],
      "name": "getSellerDetails",
      "outputs": [
        {
          "internalType": "string",
          "name": "",
          "type": "string"
        },
        {
          "internalType": "uint256",
          "name": "",
          "type": "uint256"
        },
        {
          "internalType": "string",
          "name": "",
          "type": "string"
        },
        {
          "internalType": "string",
          "name": "",
          "type": "string"
        },
        {
          "internalType": "string",
          "name": "",
          "type": "string"
        },
        {
          "internalType": "string",
          "name": "",
          "type": "string"
        }
      ],
      "payable": false,
      "stateMutability": "view",
      "type": "function"
    },
    {
      "constant": false,
      "inputs": [
        {
          "internalType": "string",
          "name": "_name",
          "type": "string"
        },
        {
          "internalType": "uint256",
          "name": "_age",
          "type": "uint256"
        },
        {
          "internalType": "string",
          "name": "_city",
          "type": "string"
        },
        {
          "internalType": "string",
          "name": "_ntnNumber",
          "type": "string"
        },
        {
          "internalType": "string",
          "name": "_cnicNumber",
          "type": "string"
        },
        {
          "internalType": "string",
          "name": "_document",
          "type": "string"
        },
        {
          "internalType": "string",
          "name": "_email",
          "type": "string"
        }
      ],
      "name": "registerBuyer",
      "outputs": [],
      "payable": false,
      "stateMutability": "nonpayable",
      "type": "function"
    },
    {
      "constant": false,
      "inputs": [
        {
          "internalType": "string",
          "name": "_name",
          "type": "string"
        },
        {
          "internalType": "uint256",
          "name": "_age",
          "type": "uint256"
        },
        {
          "internalType": "string",
          "name": "_city",
          "type": "string"
        },
        {
          "internalType": "string",
          "name": "_ntnNumber",
          "type": "string"
        },
        {
          "internalType": "string",
          "name": "_email",
          "type": "string"
        },
        {
          "internalType": "string",
          "name": "_cnicNumber",
          "type": "string"
        }
      ],
      "name": "updateBuyer",
      "outputs": [],
      "payable": false,
      "stateMutability": "nonpayable",
      "type": "function"
    },
    {
      "constant": true,
      "inputs": [],
      "name": "getBuyer",
      "outputs": [
        {
          "internalType": "address[]",
          "name": "",
          "type": "address[]"
        }
      ],
      "payable": false,
      "stateMutability": "view",
      "type": "function"
    },
    {
      "constant": true,
      "inputs": [
        {
          "internalType": "address",
          "name": "i",
          "type": "address"
        }
      ],
      "name": "getBuyerDetails",
      "outputs": [
        {
          "internalType": "string",
          "name": "",
          "type": "string"
        },
        {
          "internalType": "string",
          "name": "",
          "type": "string"
        },
        {
          "internalType": "string",
          "name": "",
          "type": "string"
        },
        {
          "internalType": "string",
          "name": "",
          "type": "string"
        },
        {
          "internalType": "string",
          "name": "",
          "type": "string"
        },
        {
          "internalType": "uint256",
          "name": "",
          "type": "uint256"
        },
        {
          "internalType": "string",
          "name": "",
          "type": "string"
        }
      ],
      "payable": false,
      "stateMutability": "view",
      "type": "function"
    },
    {
      "constant": false,
      "inputs": [
        {
          "internalType": "address",
          "name": "_sellerId",
          "type": "address"
        },
        {
          "internalType": "uint256",
          "name": "_landId",
          "type": "uint256"
        }
      ],
      "name": "requestLand",
      "outputs": [],
      "payable": false,
      "stateMutability": "nonpayable",
      "type": "function"
    },
    {
      "constant": true,
      "inputs": [
        {
          "internalType": "uint256",
          "name": "i",
          "type": "uint256"
        }
      ],
      "name": "getRequestDetails",
      "outputs": [
        {
          "internalType": "address",
          "name": "",
          "type": "address"
        },
        {
          "internalType": "address",
          "name": "",
          "type": "address"
        },
        {
          "internalType": "uint256",
          "name": "",
          "type": "uint256"
        },
        {
          "internalType": "bool",
          "name": "",
          "type": "bool"
        }
      ],
      "payable": false,
      "stateMutability": "view",
      "type": "function"
    },
    {
      "constant": true,
      "inputs": [
        {
          "internalType": "uint256",
          "name": "_id",
          "type": "uint256"
        }
      ],
      "name": "isRequested",
      "outputs": [
        {
          "internalType": "bool",
          "name": "",
          "type": "bool"
        }
      ],
      "payable": false,
      "stateMutability": "view",
      "type": "function"
    },
    {
      "constant": true,
      "inputs": [
        {
          "internalType": "uint256",
          "name": "_id",
          "type": "uint256"
        }
      ],
      "name": "isApproved",
      "outputs": [
        {
          "internalType": "bool",
          "name": "",
          "type": "bool"
        }
      ],
      "payable": false,
      "stateMutability": "view",
      "type": "function"
    },
    {
      "constant": false,
      "inputs": [
        {
          "internalType": "uint256",
          "name": "_reqId",
          "type": "uint256"
        }
      ],
      "name": "approveRequest",
      "outputs": [],
      "payable": false,
      "stateMutability": "nonpayable",
      "type": "function"
    },
    {
      "constant": false,
      "inputs": [
        {
          "internalType": "uint256",
          "name": "_landId",
          "type": "uint256"
        },
        {
          "internalType": "address",
          "name": "_newOwner",
          "type": "address"
        }
      ],
      "name": "LandOwnershipTransfer",
      "outputs": [],
      "payable": false,
      "stateMutability": "nonpayable",
      "type": "function"
    },
    {
      "constant": true,
      "inputs": [
        {
          "internalType": "uint256",
          "name": "_landId",
          "type": "uint256"
        }
      ],
      "name": "isPaid",
      "outputs": [
        {
          "internalType": "bool",
          "name": "",
          "type": "bool"
        }
      ],
      "payable": false,
      "stateMutability": "view",
      "type": "function"
    },
    {
      "constant": false,
      "inputs": [
        {
          "internalType": "address payable",
          "name": "_receiver",
          "type": "address"
        },
        {
          "internalType": "uint256",
          "name": "_landId",
          "type": "uint256"
        }
      ],
      "name": "payment",
      "outputs": [],
      "payable": true,
      "stateMutability": "payable",
      "type": "function"
    }
  ],
  "bytecode": "0x60806040523480156200001157600080fd5b5033601160006101000a81548173ffffffffffffffffffffffffffffffffffffffff021916908373ffffffffffffffffffffffffffffffffffffffff160217905550620000d16040518060400160405280600b81526020017f496e73706563746f722031000000000000000000000000000000000000000000815250602d6040518060400160405280600e81526020017f54656873696c204d616e61676572000000000000000000000000000000000000815250620000d760201b60201c565b6200022a565b6015600081548092919060010191905055506040518060800160405280601554815260200184815260200183815260200182815250600160006015548152602001908152602001600020600082015181600001556020820151816001019080519060200190620001499291906200017b565b50604082015181600201556060820151816003019080519060200190620001729291906200017b565b50905050505050565b828054600181600116156101000203166002900490600052602060002090601f016020900481019282601f10620001be57805160ff1916838001178555620001ef565b82800160010185558215620001ef579182015b82811115620001ee578251825591602001919060010190620001d1565b5b509050620001fe919062000202565b5090565b6200022791905b808211156200022357600081600090555060010162000209565b5090565b90565b61561a806200023a6000396000f3fe6080604052600436106103e45760003560e01c8063a47d4c0211610208578063dd9d122d11610118578063e7572230116100ab578063f34d4c631161007a578063f34d4c6314611112578063f3f0c21814611152578063f58f85b51461117b578063f9c43bdf146111b8578063fbfa4b7f146111e1576103e4565b8063e757223014611030578063ee95feaf1461106d578063f0d3a9df146110aa578063f2aa8218146110d5576103e4565b8063e1ecc794116100e7578063e1ecc79414610f5c578063e261f1e514610f85578063e4b2611514610fca578063e530c40014611007576103e4565b8063dd9d122d14610e71578063dec091ad14610e9c578063def936c314610edf578063e165af8714610f1f576103e4565b8063bed403c71161019b578063cee26ed51161016a578063cee26ed514610d7a578063d1760e6014610db7578063d713065114610de0578063d7d1bbdb14610e1d578063dbd0e1b614610e46576103e4565b8063bed403c714610cae578063c3c5a54714610cd7578063c560b4e514610d14578063cd392a8314610d3d576103e4565b8063b0a5dcd3116101d7578063b0a5dcd314610bc4578063b3c8fe8514610c04578063b9209e3314610c46578063ba49a08c14610c83576103e4565b8063a47d4c0214610ac9578063a4a0f6c014610b06578063a6dc41fb14610b43578063ab51707414610b80576103e4565b8063601e7c34116103035780637910867b11610296578063933836481161026557806393383648146109d0578063941e2426146109f9578063989376b414610a245780639ae9711e14610a615780639dc1bfa914610a8c576103e4565b80637910867b146108f0578063835465011461092d5780638965cde11461096a57806389d2135414610993576103e4565b806367a09c23116102d257806367a09c231461082b5780636814800b1461084757806368cfe6ee146108705780636cbf6cf8146108b3576103e4565b8063601e7c3414610749578063603daf9a1461078657806363f17143146107b15780636490c7a8146107ee576103e4565b80632607aafa1161037b57806344c9af281161034a57806344c9af281461066957806348a46bd3146106a65780634daa9dae146106e35780634e2cba0914610720576103e4565b80632607aafa146105875780632a55feec146105c45780633410452a146106015780633f9b250a1461062c576103e4565b8063170f3909116103b7578063170f3909146104b75780631869a38b146104e25780631a07f76e1461051f5780631c9afd0f1461055c576103e4565b806307d56ac0146103e957806311ce462c14610426578063155fec721461044f57806316d9d6661461048c575b600080fd5b3480156103f557600080fd5b50610410600480360361040b9190810190614cbf565b61120c565b60405161041d919061529a565b60405180910390f35b34801561043257600080fd5b5061044d60048036036104489190810190614a90565b61122b565b005b34801561045b57600080fd5b5061047660048036036104719190810190614cbf565b61151c565b6040516104839190615140565b60405180910390f35b34801561049857600080fd5b506104a1611553565b6040516104ae919061529a565b60405180910390f35b3480156104c357600080fd5b506104cc61155d565b6040516104d99190614f69565b60405180910390f35b3480156104ee57600080fd5b5061050960048036036105049190810190614cbf565b611583565b6040516105169190614f69565b60405180910390f35b34801561052b57600080fd5b5061054660048036036105419190810190614cbf565b6115c0565b6040516105539190615140565b60405180910390f35b34801561056857600080fd5b506105716115e0565b60405161057e919061529a565b60405180910390f35b34801561059357600080fd5b506105ae60048036036105a99190810190614cbf565b6115e6565b6040516105bb919061515b565b60405180910390f35b3480156105d057600080fd5b506105eb60048036036105e69190810190614918565b61169d565b6040516105f89190615140565b60405180910390f35b34801561060d57600080fd5b50610616611700565b604051610623919061529a565b60405180910390f35b34801561063857600080fd5b50610653600480360361064e9190810190614cbf565b61170a565b604051610660919061515b565b60405180910390f35b34801561067557600080fd5b50610690600480360361068b9190810190614cbf565b6117c1565b60405161069d919061515b565b60405180910390f35b3480156106b257600080fd5b506106cd60048036036106c89190810190614918565b611878565b6040516106da9190615140565b60405180910390f35b3480156106ef57600080fd5b5061070a60048036036107059190810190614cbf565b61192f565b6040516107179190615140565b60405180910390f35b34801561072c57600080fd5b5061074760048036036107429190810190614b91565b61194f565b005b34801561075557600080fd5b50610770600480360361076b9190810190614918565b611c9f565b60405161077d9190615140565b60405180910390f35b34801561079257600080fd5b5061079b611cbf565b6040516107a8919061511e565b60405180910390f35b3480156107bd57600080fd5b506107d860048036036107d39190810190614918565b611d4d565b6040516107e59190615140565b60405180910390f35b3480156107fa57600080fd5b5061081560048036036108109190810190614cbf565b611d6d565b604051610822919061529a565b60405180910390f35b61084560048036036108409190810190614941565b611d8c565b005b34801561085357600080fd5b5061086e60048036036108699190810190614918565b611e03565b005b34801561087c57600080fd5b5061089760048036036108929190810190614918565b611ea7565b6040516108aa979695949392919061517d565b60405180910390f35b3480156108bf57600080fd5b506108da60048036036108d59190810190614cbf565b612443565b6040516108e79190615140565b60405180910390f35b3480156108fc57600080fd5b5061091760048036036109129190810190614cbf565b61247a565b6040516109249190615140565b60405180910390f35b34801561093957600080fd5b50610954600480360361094f9190810190614cbf565b6124b1565b6040516109619190615140565b60405180910390f35b34801561097657600080fd5b50610991600480360361098c9190810190614918565b6124d1565b005b34801561099f57600080fd5b506109ba60048036036109b59190810190614cbf565b612575565b6040516109c79190615140565b60405180910390f35b3480156109dc57600080fd5b506109f760048036036109f29190810190614a90565b612595565b005b348015610a0557600080fd5b50610a0e6128c0565b604051610a1b919061529a565b60405180910390f35b348015610a3057600080fd5b50610a4b6004803603610a469190810190614918565b6128c6565b604051610a589190615140565b60405180910390f35b348015610a6d57600080fd5b50610a766128e6565b604051610a83919061529a565b60405180910390f35b348015610a9857600080fd5b50610ab36004803603610aae9190810190614cbf565b6128ec565b604051610ac09190614f69565b60405180910390f35b348015610ad557600080fd5b50610af06004803603610aeb9190810190614918565b61291f565b604051610afd9190615140565b60405180910390f35b348015610b1257600080fd5b50610b2d6004803603610b289190810190614cbf565b61293f565b604051610b3a919061529a565b60405180910390f35b348015610b4f57600080fd5b50610b6a6004803603610b659190810190614918565b61295e565b604051610b779190615140565b60405180910390f35b348015610b8c57600080fd5b50610ba76004803603610ba29190810190614918565b61297e565b604051610bbb989796959493929190615076565b60405180910390f35b348015610bd057600080fd5b50610beb6004803603610be69190810190614cbf565b612d76565b604051610bfb94939291906152b5565b60405180910390f35b348015610c1057600080fd5b50610c2b6004803603610c269190810190614918565b612de6565b604051610c3d96959493929190615216565b60405180910390f35b348015610c5257600080fd5b50610c6d6004803603610c689190810190614918565b61329e565b604051610c7a9190615140565b60405180910390f35b348015610c8f57600080fd5b50610c98613355565b604051610ca5919061529a565b60405180910390f35b348015610cba57600080fd5b50610cd56004803603610cd09190810190614ce8565b61335b565b005b348015610ce357600080fd5b50610cfe6004803603610cf99190810190614918565b6133c3565b604051610d0b9190615140565b60405180910390f35b348015610d2057600080fd5b50610d3b6004803603610d3691908101906149b9565b613426565b005b348015610d4957600080fd5b50610d646004803603610d5f9190810190614cbf565b6136bf565b604051610d719190615140565b60405180910390f35b348015610d8657600080fd5b50610da16004803603610d9c9190810190614cbf565b6136f6565b604051610dae9190614f69565b60405180910390f35b348015610dc357600080fd5b50610dde6004803603610dd99190810190614918565b613732565b005b348015610dec57600080fd5b50610e076004803603610e029190810190614cbf565b6137d6565b604051610e14919061515b565b60405180910390f35b348015610e2957600080fd5b50610e446004803603610e3f9190810190614cbf565b61388d565b005b348015610e5257600080fd5b50610e5b6138df565b604051610e68919061511e565b60405180910390f35b348015610e7d57600080fd5b50610e8661396d565b604051610e93919061529a565b60405180910390f35b348015610ea857600080fd5b50610ec36004803603610ebe9190810190614918565b613977565b604051610ed69796959493929190614fe4565b60405180910390f35b348015610eeb57600080fd5b50610f066004803603610f019190810190614cbf565b613cd1565b604051610f1694939291906152fa565b60405180910390f35b348015610f2b57600080fd5b50610f466004803603610f419190810190614918565b613e31565b604051610f539190615140565b60405180910390f35b348015610f6857600080fd5b50610f836004803603610f7e9190810190614918565b613e9c565b005b348015610f9157600080fd5b50610fac6004803603610fa79190810190614cbf565b613f40565b604051610fc19998979695949392919061534d565b60405180910390f35b348015610fd657600080fd5b50610ff16004803603610fec9190810190614918565b6141ee565b604051610ffe9190615140565b60405180910390f35b34801561101357600080fd5b5061102e60048036036110299190810190614d24565b61420e565b005b34801561103c57600080fd5b5061105760048036036110529190810190614cbf565b6143a1565b604051611064919061529a565b60405180910390f35b34801561107957600080fd5b50611094600480360361108f9190810190614918565b6143c0565b6040516110a19190615140565b60405180910390f35b3480156110b657600080fd5b506110bf614423565b6040516110cc919061529a565b60405180910390f35b3480156110e157600080fd5b506110fc60048036036110f79190810190614cbf565b61442d565b6040516111099190614f69565b60405180910390f35b34801561111e57600080fd5b5061113960048036036111349190810190614cbf565b614469565b6040516111499493929190614f9f565b60405180910390f35b34801561115e57600080fd5b506111796004803603611174919081019061497d565b614524565b005b34801561118757600080fd5b506111a2600480360361119d9190810190614918565b6146f9565b6040516111af9190615140565b60405180910390f35b3480156111c457600080fd5b506111df60048036036111da9190810190614cbf565b614719565b005b3480156111ed57600080fd5b506111f661475a565b604051611203919061529a565b60405180910390f35b6000806000838152602001908152602001600020600501549050919050565b600560003373ffffffffffffffffffffffffffffffffffffffff1673ffffffffffffffffffffffffffffffffffffffff16815260200190815260200160002060009054906101000a900460ff16801561131157503373ffffffffffffffffffffffffffffffffffffffff16600360003373ffffffffffffffffffffffffffffffffffffffff1673ffffffffffffffffffffffffffffffffffffffff16815260200190815260200160002060000160009054906101000a900473ffffffffffffffffffffffffffffffffffffffff1673ffffffffffffffffffffffffffffffffffffffff16145b61131a57600080fd5b85600360003373ffffffffffffffffffffffffffffffffffffffff1673ffffffffffffffffffffffffffffffffffffffff1681526020019081526020016000206001019080519060200190611370929190614760565b5084600360003373ffffffffffffffffffffffffffffffffffffffff1673ffffffffffffffffffffffffffffffffffffffff1681526020019081526020016000206002018190555083600360003373ffffffffffffffffffffffffffffffffffffffff1673ffffffffffffffffffffffffffffffffffffffff168152602001908152602001600020600301908051906020019061140e929190614760565b5082600360003373ffffffffffffffffffffffffffffffffffffffff1673ffffffffffffffffffffffffffffffffffffffff1681526020019081526020016000206004019080519060200190611465929190614760565b5081600360003373ffffffffffffffffffffffffffffffffffffffff1673ffffffffffffffffffffffffffffffffffffffff16815260200190815260200160002060070190805190602001906114bc929190614760565b5080600360003373ffffffffffffffffffffffffffffffffffffffff1673ffffffffffffffffffffffffffffffffffffffff1681526020019081526020016000206005019080519060200190611513929190614760565b50505050505050565b6000600f600083815260200190815260200160002060009054906101000a900460ff161561154d576001905061154e565b5b919050565b6000601454905090565b601160009054906101000a900473ffffffffffffffffffffffffffffffffffffffff1681565b6000600d600083815260200190815260200160002060009054906101000a900473ffffffffffffffffffffffffffffffffffffffff169050919050565b60106020528060005260406000206000915054906101000a900460ff1681565b60145481565b60606000808381526020019081526020016000206007018054600181600116156101000203166002900480601f0160208091040260200160405190810160405280929190818152602001828054600181600116156101000203166002900480156116915780601f1061166657610100808354040283529160200191611691565b820191906000526020600020905b81548152906001019060200180831161167457829003601f168201915b50505050509050919050565b6000600760008373ffffffffffffffffffffffffffffffffffffffff1673ffffffffffffffffffffffffffffffffffffffff16815260200190815260200160002060009054906101000a900460ff16156116fa57600190506116fb565b5b919050565b6000601854905090565b60606000808381526020019081526020016000206008018054600181600116156101000203166002900480601f0160208091040260200160405190810160405280929190818152602001828054600181600116156101000203166002900480156117b55780601f1061178a576101008083540402835291602001916117b5565b820191906000526020600020905b81548152906001019060200180831161179857829003601f168201915b50505050509050919050565b60606000808381526020019081526020016000206003018054600181600116156101000203166002900480601f01602080910402602001604051908101604052809291908181526020018280546001816001161561010002031660029004801561186c5780601f106118415761010080835404028352916020019161186c565b820191906000526020600020905b81548152906001019060200180831161184f57829003601f168201915b50505050509050919050565b6000600960008373ffffffffffffffffffffffffffffffffffffffff1673ffffffffffffffffffffffffffffffffffffffff16815260200190815260200160002060009054906101000a900460ff168061191b5750600b60008373ffffffffffffffffffffffffffffffffffffffff1673ffffffffffffffffffffffffffffffffffffffff16815260200190815260200160002060009054906101000a900460ff165b15611929576001905061192a565b5b919050565b600f6020528060005260406000206000915054906101000a900460ff1681565b600560003373ffffffffffffffffffffffffffffffffffffffff1673ffffffffffffffffffffffffffffffffffffffff16815260200190815260200160002060009054906101000a900460ff16156119a657600080fd5b6001600560003373ffffffffffffffffffffffffffffffffffffffff1673ffffffffffffffffffffffffffffffffffffffff16815260200190815260200160002060006101000a81548160ff0219169083151502179055506001600760003373ffffffffffffffffffffffffffffffffffffffff1673ffffffffffffffffffffffffffffffffffffffff16815260200190815260200160002060006101000a81548160ff0219169083151502179055506017600081548092919060010191905055506040518061010001604052803373ffffffffffffffffffffffffffffffffffffffff16815260200188815260200187815260200186815260200185815260200184815260200183815260200182815250600360003373ffffffffffffffffffffffffffffffffffffffff1673ffffffffffffffffffffffffffffffffffffffff16815260200190815260200160002060008201518160000160006101000a81548173ffffffffffffffffffffffffffffffffffffffff021916908373ffffffffffffffffffffffffffffffffffffffff1602179055506020820151816001019080519060200190611b5a9291906147e0565b50604082015181600201556060820151816003019080519060200190611b819291906147e0565b506080820151816004019080519060200190611b9e9291906147e0565b5060a0820151816005019080519060200190611bbb9291906147e0565b5060c0820151816006019080519060200190611bd89291906147e0565b5060e0820151816007019080519060200190611bf59291906147e0565b5090505060133390806001815401808255809150509060018203906000526020600020016000909192909190916101000a81548173ffffffffffffffffffffffffffffffffffffffff021916908373ffffffffffffffffffffffffffffffffffffffff160217905550507f478f5152d8fc568db3f8de9fb402fd9d98a1a7541ecfe434e59cf574fbfc552433604051611c8e9190614f84565b60405180910390a150505050505050565b60066020528060005260406000206000915054906101000a900460ff1681565b60606013805480602002602001604051908101604052809291908181526020018280548015611d4357602002820191906000526020600020905b8160009054906101000a900473ffffffffffffffffffffffffffffffffffffffff1673ffffffffffffffffffffffffffffffffffffffff1681526020019060010190808311611cf9575b5050505050905090565b60096020528060005260406000206000915054906101000a900460ff1681565b6000806000838152602001908152602001600020600101549050919050565b60016010600083815260200190815260200160002060006101000a81548160ff0219169083151502179055508173ffffffffffffffffffffffffffffffffffffffff166108fc349081150290604051600060405180830381858888f19350505050158015611dfe573d6000803e3d6000fd5b505050565b611e0c33613e31565b611e1557600080fd5b6001600a60008373ffffffffffffffffffffffffffffffffffffffff1673ffffffffffffffffffffffffffffffffffffffff16815260200190815260200160002060006101000a81548160ff0219169083151502179055507f6a6455914f452787eb3985452aceedc1000fb545e394eb3b370e3d08958e0a5b81604051611e9c9190614f69565b60405180910390a150565b606080606080606060006060600360008973ffffffffffffffffffffffffffffffffffffffff1673ffffffffffffffffffffffffffffffffffffffff168152602001908152602001600020600101600360008a73ffffffffffffffffffffffffffffffffffffffff1673ffffffffffffffffffffffffffffffffffffffff168152602001908152602001600020600301600360008b73ffffffffffffffffffffffffffffffffffffffff1673ffffffffffffffffffffffffffffffffffffffff168152602001908152602001600020600501600360008c73ffffffffffffffffffffffffffffffffffffffff1673ffffffffffffffffffffffffffffffffffffffff168152602001908152602001600020600601600360008d73ffffffffffffffffffffffffffffffffffffffff1673ffffffffffffffffffffffffffffffffffffffff168152602001908152602001600020600701600360008e73ffffffffffffffffffffffffffffffffffffffff1673ffffffffffffffffffffffffffffffffffffffff16815260200190815260200160002060020154600360008f73ffffffffffffffffffffffffffffffffffffffff1673ffffffffffffffffffffffffffffffffffffffff168152602001908152602001600020600401868054600181600116156101000203166002900480601f0160208091040260200160405190810160405280929190818152602001828054600181600116156101000203166002900480156121175780601f106120ec57610100808354040283529160200191612117565b820191906000526020600020905b8154815290600101906020018083116120fa57829003601f168201915b50505050509650858054600181600116156101000203166002900480601f0160208091040260200160405190810160405280929190818152602001828054600181600116156101000203166002900480156121b35780601f10612188576101008083540402835291602001916121b3565b820191906000526020600020905b81548152906001019060200180831161219657829003601f168201915b50505050509550848054600181600116156101000203166002900480601f01602080910402602001604051908101604052809291908181526020018280546001816001161561010002031660029004801561224f5780601f106122245761010080835404028352916020019161224f565b820191906000526020600020905b81548152906001019060200180831161223257829003601f168201915b50505050509450838054600181600116156101000203166002900480601f0160208091040260200160405190810160405280929190818152602001828054600181600116156101000203166002900480156122eb5780601f106122c0576101008083540402835291602001916122eb565b820191906000526020600020905b8154815290600101906020018083116122ce57829003601f168201915b50505050509350828054600181600116156101000203166002900480601f0160208091040260200160405190810160405280929190818152602001828054600181600116156101000203166002900480156123875780601f1061235c57610100808354040283529160200191612387565b820191906000526020600020905b81548152906001019060200180831161236a57829003601f168201915b50505050509250808054600181600116156101000203166002900480601f0160208091040260200160405190810160405280929190818152602001828054600181600116156101000203166002900480156124235780601f106123f857610100808354040283529160200191612423565b820191906000526020600020905b81548152906001019060200180831161240657829003601f168201915b505050505090509650965096509650965096509650919395979092949650565b6000600c600083815260200190815260200160002060009054906101000a900460ff16156124745760019050612475565b5b919050565b6000600e600083815260200190815260200160002060009054906101000a900460ff16156124ab57600190506124ac565b5b919050565b600c6020528060005260406000206000915054906101000a900460ff1681565b6124da33613e31565b6124e357600080fd5b6001600b60008373ffffffffffffffffffffffffffffffffffffffff1673ffffffffffffffffffffffffffffffffffffffff16815260200190815260200160002060006101000a81548160ff0219169083151502179055507faf77f8960cf590e245ec8b6d41c193a5dcacad8986ae4eb57ac9e5be7b6af0318160405161256a9190614f69565b60405180910390a150565b600e6020528060005260406000206000915054906101000a900460ff1681565b600560003373ffffffffffffffffffffffffffffffffffffffff1673ffffffffffffffffffffffffffffffffffffffff16815260200190815260200160002060009054906101000a900460ff16156125ec57600080fd5b6001600560003373ffffffffffffffffffffffffffffffffffffffff1673ffffffffffffffffffffffffffffffffffffffff16815260200190815260200160002060006101000a81548160ff0219169083151502179055506001600660003373ffffffffffffffffffffffffffffffffffffffff1673ffffffffffffffffffffffffffffffffffffffff16815260200190815260200160002060006101000a81548160ff0219169083151502179055506016600081548092919060010191905055506040518060e001604052803373ffffffffffffffffffffffffffffffffffffffff16815260200187815260200186815260200185815260200184815260200183815260200182815250600260003373ffffffffffffffffffffffffffffffffffffffff1673ffffffffffffffffffffffffffffffffffffffff16815260200190815260200160002060008201518160000160006101000a81548173ffffffffffffffffffffffffffffffffffffffff021916908373ffffffffffffffffffffffffffffffffffffffff16021790555060208201518160010190805190602001906127999291906147e0565b506040820151816002015560608201518160030190805190602001906127c09291906147e0565b5060808201518160040190805190602001906127dd9291906147e0565b5060a08201518160050190805190602001906127fa9291906147e0565b5060c08201518160060190805190602001906128179291906147e0565b5090505060123390806001815401808255809150509060018203906000526020600020016000909192909190916101000a81548173ffffffffffffffffffffffffffffffffffffffff021916908373ffffffffffffffffffffffffffffffffffffffff160217905550507f478f5152d8fc568db3f8de9fb402fd9d98a1a7541ecfe434e59cf574fbfc5524336040516128b09190614f84565b60405180910390a1505050505050565b60155481565b600b6020528060005260406000206000915054906101000a900460ff1681565b60165481565b600d6020528060005260406000206000915054906101000a900473ffffffffffffffffffffffffffffffffffffffff1681565b60076020528060005260406000206000915054906101000a900460ff1681565b6000806000838152602001908152602001600020600601549050919050565b600a6020528060005260406000206000915054906101000a900460ff1681565b60036020528060005260406000206000915090508060000160009054906101000a900473ffffffffffffffffffffffffffffffffffffffff1690806001018054600181600116156101000203166002900480601f016020809104026020016040519081016040528092919081815260200182805460018160011615610100020316600290048015612a505780601f10612a2557610100808354040283529160200191612a50565b820191906000526020600020905b815481529060010190602001808311612a3357829003601f168201915b505050505090806002015490806003018054600181600116156101000203166002900480601f016020809104026020016040519081016040528092919081815260200182805460018160011615610100020316600290048015612af45780601f10612ac957610100808354040283529160200191612af4565b820191906000526020600020905b815481529060010190602001808311612ad757829003601f168201915b505050505090806004018054600181600116156101000203166002900480601f016020809104026020016040519081016040528092919081815260200182805460018160011615610100020316600290048015612b925780601f10612b6757610100808354040283529160200191612b92565b820191906000526020600020905b815481529060010190602001808311612b7557829003601f168201915b505050505090806005018054600181600116156101000203166002900480601f016020809104026020016040519081016040528092919081815260200182805460018160011615610100020316600290048015612c305780601f10612c0557610100808354040283529160200191612c30565b820191906000526020600020905b815481529060010190602001808311612c1357829003601f168201915b505050505090806006018054600181600116156101000203166002900480601f016020809104026020016040519081016040528092919081815260200182805460018160011615610100020316600290048015612cce5780601f10612ca357610100808354040283529160200191612cce565b820191906000526020600020905b815481529060010190602001808311612cb157829003601f168201915b505050505090806007018054600181600116156101000203166002900480601f016020809104026020016040519081016040528092919081815260200182805460018160011615610100020316600290048015612d6c5780601f10612d4157610100808354040283529160200191612d6c565b820191906000526020600020905b815481529060010190602001808311612d4f57829003601f168201915b5050505050905088565b60046020528060005260406000206000915090508060000154908060010160009054906101000a900473ffffffffffffffffffffffffffffffffffffffff16908060020160009054906101000a900473ffffffffffffffffffffffffffffffffffffffff16908060030154905084565b60606000606080606080600260008873ffffffffffffffffffffffffffffffffffffffff1673ffffffffffffffffffffffffffffffffffffffff168152602001908152602001600020600101600260008973ffffffffffffffffffffffffffffffffffffffff1673ffffffffffffffffffffffffffffffffffffffff16815260200190815260200160002060020154600260008a73ffffffffffffffffffffffffffffffffffffffff1673ffffffffffffffffffffffffffffffffffffffff168152602001908152602001600020600301600260008b73ffffffffffffffffffffffffffffffffffffffff1673ffffffffffffffffffffffffffffffffffffffff168152602001908152602001600020600401600260008c73ffffffffffffffffffffffffffffffffffffffff1673ffffffffffffffffffffffffffffffffffffffff168152602001908152602001600020600501600260008d73ffffffffffffffffffffffffffffffffffffffff1673ffffffffffffffffffffffffffffffffffffffff168152602001908152602001600020600601858054600181600116156101000203166002900480601f0160208091040260200160405190810160405280929190818152602001828054600181600116156101000203166002900480156130125780601f10612fe757610100808354040283529160200191613012565b820191906000526020600020905b815481529060010190602001808311612ff557829003601f168201915b50505050509550838054600181600116156101000203166002900480601f0160208091040260200160405190810160405280929190818152602001828054600181600116156101000203166002900480156130ae5780601f10613083576101008083540402835291602001916130ae565b820191906000526020600020905b81548152906001019060200180831161309157829003601f168201915b50505050509350828054600181600116156101000203166002900480601f01602080910402602001604051908101604052809291908181526020018280546001816001161561010002031660029004801561314a5780601f1061311f5761010080835404028352916020019161314a565b820191906000526020600020905b81548152906001019060200180831161312d57829003601f168201915b50505050509250818054600181600116156101000203166002900480601f0160208091040260200160405190810160405280929190818152602001828054600181600116156101000203166002900480156131e65780601f106131bb576101008083540402835291602001916131e6565b820191906000526020600020905b8154815290600101906020018083116131c957829003601f168201915b50505050509150808054600181600116156101000203166002900480601f0160208091040260200160405190810160405280929190818152602001828054600181600116156101000203166002900480156132825780601f1061325757610100808354040283529160200191613282565b820191906000526020600020905b81548152906001019060200180831161326557829003601f168201915b5050505050905095509550955095509550955091939550919395565b6000600860008373ffffffffffffffffffffffffffffffffffffffff1673ffffffffffffffffffffffffffffffffffffffff16815260200190815260200160002060009054906101000a900460ff16806133415750600a60008373ffffffffffffffffffffffffffffffffffffffff1673ffffffffffffffffffffffffffffffffffffffff16815260200190815260200160002060009054906101000a900460ff165b1561334f5760019050613350565b5b919050565b60175481565b61336433613e31565b61336d57600080fd5b80600d600084815260200190815260200160002060006101000a81548173ffffffffffffffffffffffffffffffffffffffff021916908373ffffffffffffffffffffffffffffffffffffffff1602179055505050565b6000600560008373ffffffffffffffffffffffffffffffffffffffff1673ffffffffffffffffffffffffffffffffffffffff16815260200190815260200160002060009054906101000a900460ff16156134205760019050613421565b5b919050565b600560003373ffffffffffffffffffffffffffffffffffffffff1673ffffffffffffffffffffffffffffffffffffffff16815260200190815260200160002060009054906101000a900460ff16801561350c57503373ffffffffffffffffffffffffffffffffffffffff16600260003373ffffffffffffffffffffffffffffffffffffffff1673ffffffffffffffffffffffffffffffffffffffff16815260200190815260200160002060000160009054906101000a900473ffffffffffffffffffffffffffffffffffffffff1673ffffffffffffffffffffffffffffffffffffffff16145b61351557600080fd5b84600260003373ffffffffffffffffffffffffffffffffffffffff1673ffffffffffffffffffffffffffffffffffffffff168152602001908152602001600020600101908051906020019061356b929190614760565b5083600260003373ffffffffffffffffffffffffffffffffffffffff1673ffffffffffffffffffffffffffffffffffffffff1681526020019081526020016000206002018190555082600260003373ffffffffffffffffffffffffffffffffffffffff1673ffffffffffffffffffffffffffffffffffffffff1681526020019081526020016000206003019080519060200190613609929190614760565b5081600260003373ffffffffffffffffffffffffffffffffffffffff1673ffffffffffffffffffffffffffffffffffffffff1681526020019081526020016000206004019080519060200190613660929190614760565b5080600260003373ffffffffffffffffffffffffffffffffffffffff1673ffffffffffffffffffffffffffffffffffffffff16815260200190815260200160002060050190805190602001906136b7929190614760565b505050505050565b60006010600083815260200190815260200160002060009054906101000a900460ff16156136f057600190506136f1565b5b919050565b6012818154811061370357fe5b906000526020600020016000915054906101000a900473ffffffffffffffffffffffffffffffffffffffff1681565b61373b33613e31565b61374457600080fd5b6001600860008373ffffffffffffffffffffffffffffffffffffffff1673ffffffffffffffffffffffffffffffffffffffff16815260200190815260200160002060006101000a81548160ff0219169083151502179055507f6a6455914f452787eb3985452aceedc1000fb545e394eb3b370e3d08958e0a5b816040516137cb9190614f69565b60405180910390a150565b60606000808381526020019081526020016000206002018054600181600116156101000203166002900480601f0160208091040260200160405190810160405280929190818152602001828054600181600116156101000203166002900480156138815780601f1061385657610100808354040283529160200191613881565b820191906000526020600020905b81548152906001019060200180831161386457829003601f168201915b50505050509050919050565b613896336143c0565b80156138a757506138a63361329e565b5b6138b057600080fd5b6001600e600083815260200190815260200160002060006101000a81548160ff02191690831515021790555050565b6060601280548060200260200160405190810160405280929190818152602001828054801561396357602002820191906000526020600020905b8160009054906101000a900473ffffffffffffffffffffffffffffffffffffffff1673ffffffffffffffffffffffffffffffffffffffff1681526020019060010190808311613919575b5050505050905090565b6000601654905090565b60026020528060005260406000206000915090508060000160009054906101000a900473ffffffffffffffffffffffffffffffffffffffff1690806001018054600181600116156101000203166002900480601f016020809104026020016040519081016040528092919081815260200182805460018160011615610100020316600290048015613a495780601f10613a1e57610100808354040283529160200191613a49565b820191906000526020600020905b815481529060010190602001808311613a2c57829003601f168201915b505050505090806002015490806003018054600181600116156101000203166002900480601f016020809104026020016040519081016040528092919081815260200182805460018160011615610100020316600290048015613aed5780601f10613ac257610100808354040283529160200191613aed565b820191906000526020600020905b815481529060010190602001808311613ad057829003601f168201915b505050505090806004018054600181600116156101000203166002900480601f016020809104026020016040519081016040528092919081815260200182805460018160011615610100020316600290048015613b8b5780601f10613b6057610100808354040283529160200191613b8b565b820191906000526020600020905b815481529060010190602001808311613b6e57829003601f168201915b505050505090806005018054600181600116156101000203166002900480601f016020809104026020016040519081016040528092919081815260200182805460018160011615610100020316600290048015613c295780601f10613bfe57610100808354040283529160200191613c29565b820191906000526020600020905b815481529060010190602001808311613c0c57829003601f168201915b505050505090806006018054600181600116156101000203166002900480601f016020809104026020016040519081016040528092919081815260200182805460018160011615610100020316600290048015613cc75780601f10613c9c57610100808354040283529160200191613cc7565b820191906000526020600020905b815481529060010190602001808311613caa57829003601f168201915b5050505050905087565b6001602052806000526040600020600091509050806000015490806001018054600181600116156101000203166002900480601f016020809104026020016040519081016040528092919081815260200182805460018160011615610100020316600290048015613d835780601f10613d5857610100808354040283529160200191613d83565b820191906000526020600020905b815481529060010190602001808311613d6657829003601f168201915b505050505090806002015490806003018054600181600116156101000203166002900480601f016020809104026020016040519081016040528092919081815260200182805460018160011615610100020316600290048015613e275780601f10613dfc57610100808354040283529160200191613e27565b820191906000526020600020905b815481529060010190602001808311613e0a57829003601f168201915b5050505050905084565b60008173ffffffffffffffffffffffffffffffffffffffff16601160009054906101000a900473ffffffffffffffffffffffffffffffffffffffff1673ffffffffffffffffffffffffffffffffffffffff161415613e925760019050613e97565b600090505b919050565b613ea533613e31565b613eae57600080fd5b6001600960008373ffffffffffffffffffffffffffffffffffffffff1673ffffffffffffffffffffffffffffffffffffffff16815260200190815260200160002060006101000a81548160ff0219169083151502179055507faf77f8960cf590e245ec8b6d41c193a5dcacad8986ae4eb57ac9e5be7b6af03181604051613f359190614f69565b60405180910390a150565b6000602052806000526040600020600091509050806000015490806001015490806002018054600181600116156101000203166002900480601f016020809104026020016040519081016040528092919081815260200182805460018160011615610100020316600290048015613ff85780601f10613fcd57610100808354040283529160200191613ff8565b820191906000526020600020905b815481529060010190602001808311613fdb57829003601f168201915b505050505090806003018054600181600116156101000203166002900480601f0160208091040260200160405190810160405280929190818152602001828054600181600116156101000203166002900480156140965780601f1061406b57610100808354040283529160200191614096565b820191906000526020600020905b81548152906001019060200180831161407957829003601f168201915b505050505090806004015490806005015490806006015490806007018054600181600116156101000203166002900480601f0160208091040260200160405190810160405280929190818152602001828054600181600116156101000203166002900480156141465780601f1061411b57610100808354040283529160200191614146565b820191906000526020600020905b81548152906001019060200180831161412957829003601f168201915b505050505090806008018054600181600116156101000203166002900480601f0160208091040260200160405190810160405280929190818152602001828054600181600116156101000203166002900480156141e45780601f106141b9576101008083540402835291602001916141e4565b820191906000526020600020905b8154815290600101906020018083116141c757829003601f168201915b5050505050905089565b60086020528060005260406000206000915054906101000a900460ff1681565b614217336143c0565b801561422857506142273361329e565b5b61423157600080fd5b6014600081548092919060010191905055506040518061012001604052806014548152602001898152602001888152602001878152602001868152602001858152602001848152602001838152602001828152506000806014548152602001908152602001600020600082015181600001556020820151816001015560408201518160020190805190602001906142c99291906147e0565b5060608201518160030190805190602001906142e69291906147e0565b506080820151816004015560a0820151816005015560c0820151816006015560e08201518160070190805190602001906143219291906147e0565b5061010082015181600801908051906020019061433f9291906147e0565b5090505033600d6000601454815260200190815260200160002060006101000a81548173ffffffffffffffffffffffffffffffffffffffff021916908373ffffffffffffffffffffffffffffffffffffffff1602179055505050505050505050565b6000806000838152602001908152602001600020600401549050919050565b6000600660008373ffffffffffffffffffffffffffffffffffffffff1673ffffffffffffffffffffffffffffffffffffffff16815260200190815260200160002060009054906101000a900460ff161561441d576001905061441e565b5b919050565b6000601754905090565b6013818154811061443a57fe5b906000526020600020016000915054906101000a900473ffffffffffffffffffffffffffffffffffffffff1681565b6000806000806004600086815260200190815260200160002060010160009054906101000a900473ffffffffffffffffffffffffffffffffffffffff166004600087815260200190815260200160002060020160009054906101000a900473ffffffffffffffffffffffffffffffffffffffff166004600088815260200190815260200160002060030154600e600089815260200190815260200160002060009054906101000a900460ff1693509350935093509193509193565b61452d3361169d565b801561453e575061453d3361329e565b5b61454757600080fd5b601860008154809291906001019190505550604051806080016040528060185481526020018373ffffffffffffffffffffffffffffffffffffffff1681526020013373ffffffffffffffffffffffffffffffffffffffff168152602001828152506004600060185481526020019081526020016000206000820151816000015560208201518160010160006101000a81548173ffffffffffffffffffffffffffffffffffffffff021916908373ffffffffffffffffffffffffffffffffffffffff16021790555060408201518160020160006101000a81548173ffffffffffffffffffffffffffffffffffffffff021916908373ffffffffffffffffffffffffffffffffffffffff160217905550606082015181600301559050506000600e6000601854815260200190815260200160002060006101000a81548160ff0219169083151502179055506001600f6000601854815260200190815260200160002060006101000a81548160ff0219169083151502179055507fc67eb70629da758128cec22f7e36ad0676066ad4df9b66e8ba58a30c1ab4075b826040516146ed9190614f69565b60405180910390a15050565b60056020528060005260406000206000915054906101000a900460ff1681565b61472233613e31565b61472b57600080fd5b6001600c600083815260200190815260200160002060006101000a81548160ff02191690831515021790555050565b60185481565b828054600181600116156101000203166002900490600052602060002090601f016020900481019282601f106147a157805160ff19168380011785556147cf565b828001600101855582156147cf579182015b828111156147ce5782518255916020019190600101906147b3565b5b5090506147dc9190614860565b5090565b828054600181600116156101000203166002900490600052602060002090601f016020900481019282601f1061482157805160ff191683800117855561484f565b8280016001018555821561484f579182015b8281111561484e578251825591602001919060010190614833565b5b50905061485c9190614860565b5090565b61488291905b8082111561487e576000816000905550600101614866565b5090565b90565b60008135905061489481615592565b92915050565b6000813590506148a9816155a9565b92915050565b600082601f8301126148c057600080fd5b81356148d36148ce82615423565b6153f6565b915080825260208301602083018583830111156148ef57600080fd5b6148fa83828461553f565b50505092915050565b600081359050614912816155c0565b92915050565b60006020828403121561492a57600080fd5b600061493884828501614885565b91505092915050565b6000806040838503121561495457600080fd5b60006149628582860161489a565b925050602061497385828601614903565b9150509250929050565b6000806040838503121561499057600080fd5b600061499e85828601614885565b92505060206149af85828601614903565b9150509250929050565b600080600080600060a086880312156149d157600080fd5b600086013567ffffffffffffffff8111156149eb57600080fd5b6149f7888289016148af565b9550506020614a0888828901614903565b945050604086013567ffffffffffffffff811115614a2557600080fd5b614a31888289016148af565b935050606086013567ffffffffffffffff811115614a4e57600080fd5b614a5a888289016148af565b925050608086013567ffffffffffffffff811115614a7757600080fd5b614a83888289016148af565b9150509295509295909350565b60008060008060008060c08789031215614aa957600080fd5b600087013567ffffffffffffffff811115614ac357600080fd5b614acf89828a016148af565b9650506020614ae089828a01614903565b955050604087013567ffffffffffffffff811115614afd57600080fd5b614b0989828a016148af565b945050606087013567ffffffffffffffff811115614b2657600080fd5b614b3289828a016148af565b935050608087013567ffffffffffffffff811115614b4f57600080fd5b614b5b89828a016148af565b92505060a087013567ffffffffffffffff811115614b7857600080fd5b614b8489828a016148af565b9150509295509295509295565b600080600080600080600060e0888a031215614bac57600080fd5b600088013567ffffffffffffffff811115614bc657600080fd5b614bd28a828b016148af565b9750506020614be38a828b01614903565b965050604088013567ffffffffffffffff811115614c0057600080fd5b614c0c8a828b016148af565b955050606088013567ffffffffffffffff811115614c2957600080fd5b614c358a828b016148af565b945050608088013567ffffffffffffffff811115614c5257600080fd5b614c5e8a828b016148af565b93505060a088013567ffffffffffffffff811115614c7b57600080fd5b614c878a828b016148af565b92505060c088013567ffffffffffffffff811115614ca457600080fd5b614cb08a828b016148af565b91505092959891949750929550565b600060208284031215614cd157600080fd5b6000614cdf84828501614903565b91505092915050565b60008060408385031215614cfb57600080fd5b6000614d0985828601614903565b9250506020614d1a85828601614885565b9150509250929050565b600080600080600080600080610100898b031215614d4157600080fd5b6000614d4f8b828c01614903565b985050602089013567ffffffffffffffff811115614d6c57600080fd5b614d788b828c016148af565b975050604089013567ffffffffffffffff811115614d9557600080fd5b614da18b828c016148af565b9650506060614db28b828c01614903565b9550506080614dc38b828c01614903565b94505060a0614dd48b828c01614903565b93505060c089013567ffffffffffffffff811115614df157600080fd5b614dfd8b828c016148af565b92505060e089013567ffffffffffffffff811115614e1a57600080fd5b614e268b828c016148af565b9150509295985092959890939650565b6000614e428383614e5d565b60208301905092915050565b614e5781615509565b82525050565b614e66816154af565b82525050565b614e75816154af565b82525050565b6000614e868261545f565b614e90818561548d565b9350614e9b8361544f565b8060005b83811015614ecc578151614eb38882614e36565b9750614ebe83615480565b925050600181019050614e9f565b5085935050505092915050565b614ee2816154d3565b82525050565b6000614ef382615475565b614efd818561549e565b9350614f0d81856020860161554e565b614f1681615581565b840191505092915050565b6000614f2c8261546a565b614f36818561549e565b9350614f4681856020860161554e565b614f4f81615581565b840191505092915050565b614f63816154ff565b82525050565b6000602082019050614f7e6000830184614e6c565b92915050565b6000602082019050614f996000830184614e4e565b92915050565b6000608082019050614fb46000830187614e6c565b614fc16020830186614e6c565b614fce6040830185614f5a565b614fdb6060830184614ed9565b95945050505050565b600060e082019050614ff9600083018a614e6c565b818103602083015261500b8189614f21565b905061501a6040830188614f5a565b818103606083015261502c8187614f21565b905081810360808301526150408186614f21565b905081810360a08301526150548185614f21565b905081810360c08301526150688184614f21565b905098975050505050505050565b60006101008201905061508c600083018b614e6c565b818103602083015261509e818a614f21565b90506150ad6040830189614f5a565b81810360608301526150bf8188614f21565b905081810360808301526150d38187614f21565b905081810360a08301526150e78186614f21565b905081810360c08301526150fb8185614f21565b905081810360e083015261510f8184614f21565b90509998505050505050505050565b600060208201905081810360008301526151388184614e7b565b905092915050565b60006020820190506151556000830184614ed9565b92915050565b600060208201905081810360008301526151758184614ee8565b905092915050565b600060e0820190508181036000830152615197818a614ee8565b905081810360208301526151ab8189614ee8565b905081810360408301526151bf8188614ee8565b905081810360608301526151d38187614ee8565b905081810360808301526151e78186614ee8565b90506151f660a0830185614f5a565b81810360c08301526152088184614ee8565b905098975050505050505050565b600060c08201905081810360008301526152308189614ee8565b905061523f6020830188614f5a565b81810360408301526152518187614ee8565b905081810360608301526152658186614ee8565b905081810360808301526152798185614ee8565b905081810360a083015261528d8184614ee8565b9050979650505050505050565b60006020820190506152af6000830184614f5a565b92915050565b60006080820190506152ca6000830187614f5a565b6152d76020830186614e6c565b6152e46040830185614e6c565b6152f16060830184614f5a565b95945050505050565b600060808201905061530f6000830187614f5a565b81810360208301526153218186614f21565b90506153306040830185614f5a565b81810360608301526153428184614f21565b905095945050505050565b600061012082019050615363600083018c614f5a565b615370602083018b614f5a565b8181036040830152615382818a614f21565b905081810360608301526153968189614f21565b90506153a56080830188614f5a565b6153b260a0830187614f5a565b6153bf60c0830186614f5a565b81810360e08301526153d18185614f21565b90508181036101008301526153e68184614f21565b90509a9950505050505050505050565b6000604051905081810181811067ffffffffffffffff8211171561541957600080fd5b8060405250919050565b600067ffffffffffffffff82111561543a57600080fd5b601f19601f8301169050602081019050919050565b6000819050602082019050919050565b600081519050919050565b600081519050919050565b600081519050919050565b6000602082019050919050565b600082825260208201905092915050565b600082825260208201905092915050565b60006154ba826154df565b9050919050565b60006154cc826154df565b9050919050565b60008115159050919050565b600073ffffffffffffffffffffffffffffffffffffffff82169050919050565b6000819050919050565b60006155148261551b565b9050919050565b60006155268261552d565b9050919050565b6000615538826154df565b9050919050565b82818337600083830152505050565b60005b8381101561556c578082015181840152602081019050615551565b8381111561557b576000848401525b50505050565b6000601f19601f8301169050919050565b61559b816154af565b81146155a657600080fd5b50565b6155b2816154c1565b81146155bd57600080fd5b50565b6155c9816154ff565b81146155d457600080fd5b5056fea365627a7a72315820d41bd149f6a1c5532ed2076006c33ede494eb82a1d3d84b06986fdba6c6256ec6c6578706572696d656e74616cf564736f6c63430005110040",
  "source": "pragma solidity >=0.5.2;\r\npragma experimental ABIEncoderV2;\r\n\r\ncontract Lands {\r\n    struct Landreg {\r\n        uint256 id;\r\n        uint256 area;\r\n        string city;\r\n        string state;\r\n        uint256 landPrice;\r\n        uint256 propertyPID;\r\n        uint256 physicalSurveyNumber;\r\n        string ipfsHash;\r\n        string document;\r\n    }\r\n\r\n    struct Buyer {\r\n        address id;\r\n        string name;\r\n        uint256 age;\r\n        string city;\r\n        string ntnNumber;\r\n        string cnicNumber;\r\n        string document;\r\n        string email;\r\n    }\r\n\r\n    struct Seller {\r\n        address id;\r\n        string name;\r\n        uint256 age;\r\n        string ntnNumber;\r\n        string cnicNumber;\r\n        string landsOwned;\r\n        string document;\r\n    }\r\n\r\n    struct LandInspector {\r\n        uint256 id;\r\n        string name;\r\n        uint256 age;\r\n        string designation;\r\n    }\r\n\r\n    struct LandRequest {\r\n        uint256 reqId;\r\n        address sellerId;\r\n        address buyerId;\r\n        uint256 landId;\r\n        // bool requestStatus;\r\n        // bool requested;\r\n    }\r\n\r\n    //key value pairs\r\n    mapping(uint256 => Landreg) public lands;\r\n    mapping(uint256 => LandInspector) public InspectorMapping;\r\n    mapping(address => Seller) public SellerMapping;\r\n    mapping(address => Buyer) public BuyerMapping;\r\n    mapping(uint256 => LandRequest) public RequestsMapping;\r\n\r\n    mapping(address => bool) public RegisteredAddressMapping;\r\n    mapping(address => bool) public RegisteredSellerMapping;\r\n    mapping(address => bool) public RegisteredBuyerMapping;\r\n    mapping(address => bool) public SellerVerification;\r\n    mapping(address => bool) public SellerRejection;\r\n    mapping(address => bool) public BuyerVerification;\r\n    mapping(address => bool) public BuyerRejection;\r\n    mapping(uint256 => bool) public LandVerification;\r\n    mapping(uint256 => address) public LandOwner;\r\n    mapping(uint256 => bool) public RequestStatus;\r\n    mapping(uint256 => bool) public RequestedLands;\r\n    mapping(uint256 => bool) public PaymentReceived;\r\n\r\n    address public Land_Inspector;\r\n    address[] public sellers;\r\n    address[] public buyers;\r\n\r\n    uint256 public landsCount;\r\n    uint256 public inspectorsCount;\r\n    uint256 public sellersCount;\r\n    uint256 public buyersCount;\r\n    uint256 public requestsCount;\r\n\r\n    event Registration(address _registrationId);\r\n    event AddingLand(uint256 indexed _landId);\r\n    event Landrequested(address _sellerId);\r\n    event requestApproved(address _buyerId);\r\n    event Verified(address _id);\r\n    event Rejected(address _id);\r\n\r\n    constructor() public {\r\n        Land_Inspector = msg.sender;\r\n        addLandInspector(\"Inspector 1\", 45, \"Tehsil Manager\");\r\n    }\r\n\r\n    function addLandInspector(\r\n        string memory _name,\r\n        uint256 _age,\r\n        string memory _designation\r\n    ) private {\r\n        inspectorsCount++;\r\n        InspectorMapping[inspectorsCount] = LandInspector(\r\n            inspectorsCount,\r\n            _name,\r\n            _age,\r\n            _designation\r\n        );\r\n    }\r\n\r\n    function getLandsCount() public view returns (uint256) {\r\n        return landsCount;\r\n    }\r\n\r\n    function getBuyersCount() public view returns (uint256) {\r\n        return buyersCount;\r\n    }\r\n\r\n    function getSellersCount() public view returns (uint256) {\r\n        return sellersCount;\r\n    }\r\n\r\n    function getRequestsCount() public view returns (uint256) {\r\n        return requestsCount;\r\n    }\r\n\r\n    function getArea(uint256 i) public view returns (uint256) {\r\n        return lands[i].area;\r\n    }\r\n\r\n    function getCity(uint256 i) public view returns (string memory) {\r\n        return lands[i].city;\r\n    }\r\n\r\n    function getState(uint256 i) public view returns (string memory) {\r\n        return lands[i].state;\r\n    }\r\n\r\n    // function getStatus(uint i) public view returns (bool) {\r\n    //     return lands[i].verificationStatus;\r\n    // }\r\n    function getPrice(uint256 i) public view returns (uint256) {\r\n        return lands[i].landPrice;\r\n    }\r\n\r\n    function getPID(uint256 i) public view returns (uint256) {\r\n        return lands[i].propertyPID;\r\n    }\r\n\r\n    function getSurveyNumber(uint256 i) public view returns (uint256) {\r\n        return lands[i].physicalSurveyNumber;\r\n    }\r\n\r\n    function getImage(uint256 i) public view returns (string memory) {\r\n        return lands[i].ipfsHash;\r\n    }\r\n\r\n    function getDocument(uint256 i) public view returns (string memory) {\r\n        return lands[i].document;\r\n    }\r\n\r\n    function getLandOwner(uint256 id) public view returns (address) {\r\n        return LandOwner[id];\r\n    }\r\n\r\n    function verifySeller(address _sellerId) public {\r\n        require(isLandInspector(msg.sender));\r\n\r\n        SellerVerification[_sellerId] = true;\r\n        emit Verified(_sellerId);\r\n    }\r\n\r\n    function rejectSeller(address _sellerId) public {\r\n        require(isLandInspector(msg.sender));\r\n\r\n        SellerRejection[_sellerId] = true;\r\n        emit Rejected(_sellerId);\r\n    }\r\n\r\n    function verifyBuyer(address _buyerId) public {\r\n        require(isLandInspector(msg.sender));\r\n\r\n        BuyerVerification[_buyerId] = true;\r\n        emit Verified(_buyerId);\r\n    }\r\n\r\n    function rejectBuyer(address _buyerId) public {\r\n        require(isLandInspector(msg.sender));\r\n\r\n        BuyerRejection[_buyerId] = true;\r\n        emit Rejected(_buyerId);\r\n    }\r\n\r\n    function verifyLand(uint256 _landId) public {\r\n        require(isLandInspector(msg.sender));\r\n\r\n        LandVerification[_landId] = true;\r\n    }\r\n\r\n    function isLandVerified(uint256 _id) public view returns (bool) {\r\n        if (LandVerification[_id]) {\r\n            return true;\r\n        }\r\n    }\r\n\r\n    function isVerified(address _id) public view returns (bool) {\r\n        if (SellerVerification[_id] || BuyerVerification[_id]) {\r\n            return true;\r\n        }\r\n    }\r\n\r\n    function isRejected(address _id) public view returns (bool) {\r\n        if (SellerRejection[_id] || BuyerRejection[_id]) {\r\n            return true;\r\n        }\r\n    }\r\n\r\n    function isSeller(address _id) public view returns (bool) {\r\n        if (RegisteredSellerMapping[_id]) {\r\n            return true;\r\n        }\r\n    }\r\n\r\n    function isLandInspector(address _id) public view returns (bool) {\r\n        if (Land_Inspector == _id) {\r\n            return true;\r\n        } else {\r\n            return false;\r\n        }\r\n    }\r\n\r\n    function isBuyer(address _id) public view returns (bool) {\r\n        if (RegisteredBuyerMapping[_id]) {\r\n            return true;\r\n        }\r\n    }\r\n\r\n    function isRegistered(address _id) public view returns (bool) {\r\n        if (RegisteredAddressMapping[_id]) {\r\n            return true;\r\n        }\r\n    }\r\n\r\n    function addLand(\r\n        uint256 _area,\r\n        string memory _city,\r\n        string memory _state,\r\n        uint256 landPrice,\r\n        uint256 _propertyPID,\r\n        uint256 _surveyNum,\r\n        string memory _ipfsHash,\r\n        string memory _document\r\n    ) public {\r\n        require((isSeller(msg.sender)) && (isVerified(msg.sender)));\r\n        landsCount++;\r\n        lands[landsCount] = Landreg(\r\n            landsCount,\r\n            _area,\r\n            _city,\r\n            _state,\r\n            landPrice,\r\n            _propertyPID,\r\n            _surveyNum,\r\n            _ipfsHash,\r\n            _document\r\n        );\r\n        LandOwner[landsCount] = msg.sender;\r\n        // emit AddingLand(landsCount);\r\n    }\r\n\r\n    //registration of seller\r\n    function registerSeller(\r\n        string memory _name,\r\n        uint256 _age,\r\n        string memory _ntnNumber,\r\n        string memory _cnicNumber,\r\n        string memory _landsOwned,\r\n        string memory _document\r\n    ) public {\r\n        //require that Seller is not already registered\r\n        require(!RegisteredAddressMapping[msg.sender]);\r\n\r\n        RegisteredAddressMapping[msg.sender] = true;\r\n        RegisteredSellerMapping[msg.sender] = true;\r\n        sellersCount++;\r\n        SellerMapping[msg.sender] = Seller(\r\n            msg.sender,\r\n            _name,\r\n            _age,\r\n            _ntnNumber,\r\n            _cnicNumber,\r\n            _landsOwned,\r\n            _document\r\n        );\r\n        sellers.push(msg.sender);\r\n        emit Registration(msg.sender);\r\n    }\r\n\r\n    function updateSeller(\r\n        string memory _name,\r\n        uint256 _age,\r\n        string memory _ntnNumber,\r\n        string memory _cnicNumber,\r\n        string memory _landsOwned\r\n    ) public {\r\n        //require that Seller is already registered\r\n        require(\r\n            RegisteredAddressMapping[msg.sender] &&\r\n                (SellerMapping[msg.sender].id == msg.sender)\r\n        );\r\n\r\n        SellerMapping[msg.sender].name = _name;\r\n        SellerMapping[msg.sender].age = _age;\r\n        SellerMapping[msg.sender].ntnNumber = _ntnNumber;\r\n        SellerMapping[msg.sender].cnicNumber = _cnicNumber;\r\n        SellerMapping[msg.sender].landsOwned = _landsOwned;\r\n    }\r\n\r\n    function getSeller() public view returns (address[] memory) {\r\n        return (sellers);\r\n    }\r\n\r\n    function getSellerDetails(address i)\r\n        public\r\n        view\r\n        returns (\r\n            string memory,\r\n            uint256,\r\n            string memory,\r\n            string memory,\r\n            string memory,\r\n            string memory\r\n        )\r\n    {\r\n        return (\r\n            SellerMapping[i].name,\r\n            SellerMapping[i].age,\r\n            SellerMapping[i].ntnNumber,\r\n            SellerMapping[i].cnicNumber,\r\n            SellerMapping[i].landsOwned,\r\n            SellerMapping[i].document\r\n        );\r\n    }\r\n\r\n    function registerBuyer(\r\n        string memory _name,\r\n        uint256 _age,\r\n        string memory _city,\r\n        string memory _ntnNumber,\r\n        string memory _cnicNumber,\r\n        string memory _document,\r\n        string memory _email\r\n    ) public {\r\n        //require that Buyer is not already registered\r\n        require(!RegisteredAddressMapping[msg.sender]);\r\n\r\n        RegisteredAddressMapping[msg.sender] = true;\r\n        RegisteredBuyerMapping[msg.sender] = true;\r\n        buyersCount++;\r\n        BuyerMapping[msg.sender] = Buyer(\r\n            msg.sender,\r\n            _name,\r\n            _age,\r\n            _city,\r\n            _ntnNumber,\r\n            _cnicNumber,\r\n            _document,\r\n            _email\r\n        );\r\n        buyers.push(msg.sender);\r\n\r\n        emit Registration(msg.sender);\r\n    }\r\n\r\n    function updateBuyer(\r\n        string memory _name,\r\n        uint256 _age,\r\n        string memory _city,\r\n        string memory _ntnNumber,\r\n        string memory _email,\r\n        string memory _cnicNumber\r\n    ) public {\r\n        //require that Buyer is already registered\r\n        require(\r\n            RegisteredAddressMapping[msg.sender] &&\r\n                (BuyerMapping[msg.sender].id == msg.sender)\r\n        );\r\n\r\n        BuyerMapping[msg.sender].name = _name;\r\n        BuyerMapping[msg.sender].age = _age;\r\n        BuyerMapping[msg.sender].city = _city;\r\n        BuyerMapping[msg.sender].ntnNumber = _ntnNumber;\r\n        BuyerMapping[msg.sender].email = _email;\r\n        BuyerMapping[msg.sender].cnicNumber = _cnicNumber;\r\n    }\r\n\r\n    function getBuyer() public view returns (address[] memory) {\r\n        return (buyers);\r\n    }\r\n\r\n    function getBuyerDetails(address i)\r\n        public\r\n        view\r\n        returns (\r\n            string memory,\r\n            string memory,\r\n            string memory,\r\n            string memory,\r\n            string memory,\r\n            uint256,\r\n            string memory\r\n        )\r\n    {\r\n        return (\r\n            BuyerMapping[i].name,\r\n            BuyerMapping[i].city,\r\n            BuyerMapping[i].cnicNumber,\r\n            BuyerMapping[i].document,\r\n            BuyerMapping[i].email,\r\n            BuyerMapping[i].age,\r\n            BuyerMapping[i].ntnNumber\r\n        );\r\n    }\r\n\r\n    function requestLand(address _sellerId, uint256 _landId) public {\r\n        require(isBuyer(msg.sender) && isVerified(msg.sender));\r\n\r\n        requestsCount++;\r\n        RequestsMapping[requestsCount] = LandRequest(\r\n            requestsCount,\r\n            _sellerId,\r\n            msg.sender,\r\n            _landId\r\n        );\r\n        RequestStatus[requestsCount] = false;\r\n        RequestedLands[requestsCount] = true;\r\n\r\n        emit Landrequested(_sellerId);\r\n    }\r\n\r\n    function getRequestDetails(uint256 i)\r\n        public\r\n        view\r\n        returns (\r\n            address,\r\n            address,\r\n            uint256,\r\n            bool\r\n        )\r\n    {\r\n        return (\r\n            RequestsMapping[i].sellerId,\r\n            RequestsMapping[i].buyerId,\r\n            RequestsMapping[i].landId,\r\n            RequestStatus[i]\r\n        );\r\n    }\r\n\r\n    function isRequested(uint256 _id) public view returns (bool) {\r\n        if (RequestedLands[_id]) {\r\n            return true;\r\n        }\r\n    }\r\n\r\n    function isApproved(uint256 _id) public view returns (bool) {\r\n        if (RequestStatus[_id]) {\r\n            return true;\r\n        }\r\n    }\r\n\r\n    function approveRequest(uint256 _reqId) public {\r\n        require((isSeller(msg.sender)) && (isVerified(msg.sender)));\r\n\r\n        RequestStatus[_reqId] = true;\r\n    }\r\n\r\n    function LandOwnershipTransfer(uint256 _landId, address _newOwner) public {\r\n        require(isLandInspector(msg.sender));\r\n\r\n        LandOwner[_landId] = _newOwner;\r\n    }\r\n\r\n    function isPaid(uint256 _landId) public view returns (bool) {\r\n        if (PaymentReceived[_landId]) {\r\n            return true;\r\n        }\r\n    }\r\n\r\n    function payment(address payable _receiver, uint256 _landId)\r\n        public\r\n        payable\r\n    {\r\n        PaymentReceived[_landId] = true;\r\n        _receiver.transfer(msg.value);\r\n    }\r\n}\r\n",
  "sourcePath": "C:\\Users\\Mamoon\\Desktop\\research-project\\examples\\blockchain-land-app\\land-app\\src\\contracts\\Lands.sol",
  "compiler": {
    "name": "solc",
    "version": "0.5.17+commit.d19bba13.Emscripten.clang"
  },
  "schemaVersion": "3.4.10",
  "updatedAt": "2022-10-29T18:41:59.330Z",
  "devdoc": {
    "methods": {}
  },
  "userdoc": {
    "methods": {}
  }
}